{
  "contractName": "IncidentRegistry",
  "abi": [
    {
      "anonymous": false,
      "inputs": [
        {
          "indexed": true,
          "internalType": "uint256",
          "name": "id",
          "type": "uint256"
        },
        {
          "indexed": false,
          "internalType": "string",
          "name": "photoHash",
          "type": "string"
        },
        {
          "indexed": false,
          "internalType": "string",
          "name": "latitude",
          "type": "string"
        },
        {
          "indexed": false,
          "internalType": "string",
          "name": "longitude",
          "type": "string"
        },
        {
          "indexed": false,
          "internalType": "string",
          "name": "description",
          "type": "string"
        },
        {
          "indexed": false,
          "internalType": "uint256",
          "name": "timestamp",
          "type": "uint256"
        }
      ],
      "name": "IncidentAdded",
      "type": "event"
    },
    {
      "inputs": [],
      "name": "incidentCount",
      "outputs": [
        {
          "internalType": "uint256",
          "name": "",
          "type": "uint256"
        }
      ],
      "stateMutability": "view",
      "type": "function",
      "constant": true
    },
    {
      "inputs": [
        {
          "internalType": "uint256",
          "name": "",
          "type": "uint256"
        }
      ],
      "name": "incidents",
      "outputs": [
        {
          "internalType": "string",
          "name": "photoHash",
          "type": "string"
        },
        {
          "internalType": "string",
          "name": "latitude",
          "type": "string"
        },
        {
          "internalType": "string",
          "name": "longitude",
          "type": "string"
        },
        {
          "internalType": "string",
          "name": "description",
          "type": "string"
        },
        {
          "internalType": "uint256",
          "name": "timestamp",
          "type": "uint256"
        }
      ],
      "stateMutability": "view",
      "type": "function",
      "constant": true
    },
    {
      "inputs": [
        {
          "internalType": "string",
          "name": "_photoHash",
          "type": "string"
        },
        {
          "internalType": "string",
          "name": "_latitude",
          "type": "string"
        },
        {
          "internalType": "string",
          "name": "_longitude",
          "type": "string"
        },
        {
          "internalType": "string",
          "name": "_description",
          "type": "string"
        }
      ],
      "name": "addIncident",
      "outputs": [],
      "stateMutability": "nonpayable",
      "type": "function"
    },
    {
      "inputs": [
        {
          "internalType": "uint256",
          "name": "_id",
          "type": "uint256"
        }
      ],
      "name": "getIncident",
      "outputs": [
        {
          "components": [
            {
              "internalType": "string",
              "name": "photoHash",
              "type": "string"
            },
            {
              "internalType": "string",
              "name": "latitude",
              "type": "string"
            },
            {
              "internalType": "string",
              "name": "longitude",
              "type": "string"
            },
            {
              "internalType": "string",
              "name": "description",
              "type": "string"
            },
            {
              "internalType": "uint256",
              "name": "timestamp",
              "type": "uint256"
            }
          ],
          "internalType": "struct IncidentRegistry.Incident",
          "name": "",
          "type": "tuple"
        }
      ],
      "stateMutability": "view",
      "type": "function",
      "constant": true
    }
  ],
  "bytecode": "0x608060405234801561001057600080fd5b50610dcb806100206000396000f3fe608060405234801561001057600080fd5b506004361061004c5760003560e01c8063510cda8b146100515780639578615e1461006d578063a09b86ac1461009d578063a6c6a8f3146100bb575b600080fd5b61006b60048036038101906100669190610878565b6100ef565b005b6100876004803603810190610082919061093b565b61020b565b6040516100949190610b4e565b60405180910390f35b6100a56104cd565b6040516100b29190610b70565b60405180910390f35b6100d560048036038101906100d0919061093b565b6104d3565b6040516100e6959493929190610abf565b60405180910390f35b60006001600081548092919061010490610c97565b9190505590506040518060a0016040528086815260200185815260200184815260200183815260200142815250600080838152602001908152602001600020600082015181600001908051906020019061015f929190610729565b50602082015181600101908051906020019061017c929190610729565b506040820151816002019080519060200190610199929190610729565b5060608201518160030190805190602001906101b6929190610729565b5060808201518160040155905050807f63d2478abf62cc9f865953a3110a82dd1def6f12f2efbc07e9188f7bff6edebe86868686426040516101fc959493929190610abf565b60405180910390a25050505050565b6102136107af565b6001548210610257576040517f08c379a000000000000000000000000000000000000000000000000000000000815260040161024e90610b2e565b60405180910390fd5b6000808381526020019081526020016000206040518060a001604052908160008201805461028490610c65565b80601f01602080910402602001604051908101604052809291908181526020018280546102b090610c65565b80156102fd5780601f106102d2576101008083540402835291602001916102fd565b820191906000526020600020905b8154815290600101906020018083116102e057829003601f168201915b5050505050815260200160018201805461031690610c65565b80601f016020809104026020016040519081016040528092919081815260200182805461034290610c65565b801561038f5780601f106103645761010080835404028352916020019161038f565b820191906000526020600020905b81548152906001019060200180831161037257829003601f168201915b505050505081526020016002820180546103a890610c65565b80601f01602080910402602001604051908101604052809291908181526020018280546103d490610c65565b80156104215780601f106103f657610100808354040283529160200191610421565b820191906000526020600020905b81548152906001019060200180831161040457829003601f168201915b5050505050815260200160038201805461043a90610c65565b80601f016020809104026020016040519081016040528092919081815260200182805461046690610c65565b80156104b35780601f10610488576101008083540402835291602001916104b3565b820191906000526020600020905b81548152906001019060200180831161049657829003601f168201915b505050505081526020016004820154815250509050919050565b60015481565b60006020528060005260406000206000915090508060000180546104f690610c65565b80601f016020809104026020016040519081016040528092919081815260200182805461052290610c65565b801561056f5780601f106105445761010080835404028352916020019161056f565b820191906000526020600020905b81548152906001019060200180831161055257829003601f168201915b50505050509080600101805461058490610c65565b80601f01602080910402602001604051908101604052809291908181526020018280546105b090610c65565b80156105fd5780601f106105d2576101008083540402835291602001916105fd565b820191906000526020600020905b8154815290600101906020018083116105e057829003601f168201915b50505050509080600201805461061290610c65565b80601f016020809104026020016040519081016040528092919081815260200182805461063e90610c65565b801561068b5780601f106106605761010080835404028352916020019161068b565b820191906000526020600020905b81548152906001019060200180831161066e57829003601f168201915b5050505050908060030180546106a090610c65565b80601f01602080910402602001604051908101604052809291908181526020018280546106cc90610c65565b80156107195780601f106106ee57610100808354040283529160200191610719565b820191906000526020600020905b8154815290600101906020018083116106fc57829003601f168201915b5050505050908060040154905085565b82805461073590610c65565b90600052602060002090601f016020900481019282610757576000855561079e565b82601f1061077057805160ff191683800117855561079e565b8280016001018555821561079e579182015b8281111561079d578251825591602001919060010190610782565b5b5090506107ab91906107de565b5090565b6040518060a0016040528060608152602001606081526020016060815260200160608152602001600081525090565b5b808211156107f75760008160009055506001016107df565b5090565b600061080e61080984610bbc565b610b8b565b90508281526020810184848401111561082657600080fd5b610831848285610c23565b509392505050565b600082601f83011261084a57600080fd5b813561085a8482602086016107fb565b91505092915050565b60008135905061087281610d7e565b92915050565b6000806000806080858703121561088e57600080fd5b600085013567ffffffffffffffff8111156108a857600080fd5b6108b487828801610839565b945050602085013567ffffffffffffffff8111156108d157600080fd5b6108dd87828801610839565b935050604085013567ffffffffffffffff8111156108fa57600080fd5b61090687828801610839565b925050606085013567ffffffffffffffff81111561092357600080fd5b61092f87828801610839565b91505092959194509250565b60006020828403121561094d57600080fd5b600061095b84828501610863565b91505092915050565b600061096f82610bec565b6109798185610bf7565b9350610989818560208601610c32565b61099281610d6d565b840191505092915050565b60006109a882610bec565b6109b28185610c08565b93506109c2818560208601610c32565b6109cb81610d6d565b840191505092915050565b60006109e3601883610c08565b91507f496e636964656e7420646f6573206e6f742065786973742e00000000000000006000830152602082019050919050565b600060a0830160008301518482036000860152610a338282610964565b91505060208301518482036020860152610a4d8282610964565b91505060408301518482036040860152610a678282610964565b91505060608301518482036060860152610a818282610964565b9150506080830151610a966080860182610aa1565b508091505092915050565b610aaa81610c19565b82525050565b610ab981610c19565b82525050565b600060a0820190508181036000830152610ad9818861099d565b90508181036020830152610aed818761099d565b90508181036040830152610b01818661099d565b90508181036060830152610b15818561099d565b9050610b246080830184610ab0565b9695505050505050565b60006020820190508181036000830152610b47816109d6565b9050919050565b60006020820190508181036000830152610b688184610a16565b905092915050565b6000602082019050610b856000830184610ab0565b92915050565b6000604051905081810181811067ffffffffffffffff82111715610bb257610bb1610d3e565b5b8060405250919050565b600067ffffffffffffffff821115610bd757610bd6610d3e565b5b601f19601f8301169050602081019050919050565b600081519050919050565b600082825260208201905092915050565b600082825260208201905092915050565b6000819050919050565b82818337600083830152505050565b60005b83811015610c50578082015181840152602081019050610c35565b83811115610c5f576000848401525b50505050565b60006002820490506001821680610c7d57607f821691505b60208210811415610c9157610c90610d0f565b5b50919050565b6000610ca282610c19565b91507fffffffffffffffffffffffffffffffffffffffffffffffffffffffffffffffff821415610cd557610cd4610ce0565b5b600182019050919050565b7f4e487b7100000000000000000000000000000000000000000000000000000000600052601160045260246000fd5b7f4e487b7100000000000000000000000000000000000000000000000000000000600052602260045260246000fd5b7f4e487b7100000000000000000000000000000000000000000000000000000000600052604160045260246000fd5b6000601f19601f8301169050919050565b610d8781610c19565b8114610d9257600080fd5b5056fea2646970667358221220ed7a13a29abbd687533f4a3c56923cad3c207e3d71d92b85e564432d13ebb51c64736f6c63430008000033",
  "immutableReferences": {},
  "source": "// SPDX-License-Identifier: MIT\r\npragma solidity ^0.8.0;\r\n\r\ncontract IncidentRegistry {\r\n    struct Incident {\r\n        string photoHash;  // IPFS hash (Pinata)\r\n        string latitude;\r\n        string longitude;\r\n        string description;\r\n        uint256 timestamp;\r\n    }\r\n\r\n    mapping(uint256 => Incident) public incidents;\r\n    uint256 public incidentCount;\r\n\r\n    event IncidentAdded(uint256 indexed id, string photoHash, string latitude, string longitude, string description, uint256 timestamp);\r\n\r\n    function addIncident(\r\n        string memory _photoHash,\r\n        string memory _latitude,\r\n        string memory _longitude,\r\n        string memory _description\r\n    ) public {\r\n        uint256 currentId = incidentCount++;\r\n        incidents[currentId] = Incident(_photoHash, _latitude, _longitude, _description, block.timestamp);\r\n        emit IncidentAdded(currentId, _photoHash, _latitude, _longitude, _description, block.timestamp);\r\n    }\r\n\r\n    function getIncident(uint256 _id) public view returns (Incident memory) {\r\n        require(_id < incidentCount, \"Incident does not exist.\");\r\n        return incidents[_id];\r\n    }\r\n}\r\n",
  "sourcePath": "C:\\Users\\admin\\Documents\\TravelSafety\\contracts\\IncidentRegistry.sol",
  "compiler": {
    "name": "solc",
    "version": "0.8.0+commit.c7dfd78e.Emscripten.clang"
  },
  "schemaVersion": "3.4.16",
  "updatedAt": "2025-02-22T02:35:09.814Z",
  "networkType": "ethereum",
  "devdoc": {
    "kind": "dev",
    "methods": {},
    "version": 1
  },
  "userdoc": {
    "kind": "user",
    "methods": {},
    "version": 1
  }
}